{
  "_format": "hh-sol-artifact-1",
  "contractName": "DecisionLog",
  "sourceName": "src/DecisionLog.sol",
  "abi": [
    {
      "anonymous": false,
      "inputs": [
        {
          "indexed": true,
          "internalType": "string",
          "name": "squadId",
          "type": "string"
        },
        {
          "indexed": false,
          "internalType": "string",
          "name": "agentChain",
          "type": "string"
        },
        {
          "indexed": false,
          "internalType": "string",
          "name": "rationale",
          "type": "string"
        },
        {
          "indexed": false,
          "internalType": "uint256",
          "name": "timestamp",
          "type": "uint256"
        }
      ],
      "name": "DecisionRecorded",
      "type": "event"
    },
    {
      "inputs": [
        {
          "internalType": "uint256",
          "name": "",
          "type": "uint256"
        }
      ],
      "name": "decisions",
      "outputs": [
        {
          "internalType": "string",
          "name": "squadId",
          "type": "string"
        },
        {
          "internalType": "string",
          "name": "agentChain",
          "type": "string"
        },
        {
          "internalType": "string",
          "name": "rationale",
          "type": "string"
        },
        {
          "internalType": "uint256",
          "name": "timestamp",
          "type": "uint256"
        }
      ],
      "stateMutability": "view",
      "type": "function"
    },
    {
      "inputs": [
        {
          "internalType": "uint256",
          "name": "index",
          "type": "uint256"
        }
      ],
      "name": "getDecision",
      "outputs": [
        {
          "internalType": "string",
          "name": "",
          "type": "string"
        },
        {
          "internalType": "string",
          "name": "",
          "type": "string"
        },
        {
          "internalType": "string",
          "name": "",
          "type": "string"
        },
        {
          "internalType": "uint256",
          "name": "",
          "type": "uint256"
        }
      ],
      "stateMutability": "view",
      "type": "function"
    },
    {
      "inputs": [],
      "name": "getDecisionCount",
      "outputs": [
        {
          "internalType": "uint256",
          "name": "",
          "type": "uint256"
        }
      ],
      "stateMutability": "view",
      "type": "function"
    },
    {
      "inputs": [
        {
          "internalType": "string",
          "name": "squadId",
          "type": "string"
        },
        {
          "internalType": "string",
          "name": "agentChain",
          "type": "string"
        },
        {
          "internalType": "string",
          "name": "rationale",
          "type": "string"
        }
      ],
      "name": "logDecision",
      "outputs": [],
      "stateMutability": "nonpayable",
      "type": "function"
    }
  ],
  "bytecode": "0x608060405234801561001057600080fd5b50610d8f806100206000396000f3fe608060405234801561001057600080fd5b506004361061004c5760003560e01c8063af75484814610051578063b829df8214610084578063e44e3b4d146100b7578063e4ff19da146100d3575b600080fd5b61006b600480360381019061006691906106f5565b6100f1565b60405161007b94939291906107c1565b60405180910390f35b61009e600480360381019061009991906106f5565b61030c565b6040516100ae94939291906107c1565b60405180910390f35b6100d160048036038101906100cc9190610880565b6104e4565b005b6100db6106a9565b6040516100e89190610934565b60405180910390f35b60608060606000806000868154811061010d5761010c61094f565b5b9060005260206000209060040201604051806080016040529081600082018054610136906109ad565b80601f0160208091040260200160405190810160405280929190818152602001828054610162906109ad565b80156101af5780601f10610184576101008083540402835291602001916101af565b820191906000526020600020905b81548152906001019060200180831161019257829003601f168201915b505050505081526020016001820180546101c8906109ad565b80601f01602080910402602001604051908101604052809291908181526020018280546101f4906109ad565b80156102415780601f1061021657610100808354040283529160200191610241565b820191906000526020600020905b81548152906001019060200180831161022457829003601f168201915b5050505050815260200160028201805461025a906109ad565b80601f0160208091040260200160405190810160405280929190818152602001828054610286906109ad565b80156102d35780601f106102a8576101008083540402835291602001916102d3565b820191906000526020600020905b8154815290600101906020018083116102b657829003601f168201915b50505050508152602001600382015481525050905080600001518160200151826040015183606001519450945094509450509193509193565b6000818154811061031c57600080fd5b906000526020600020906004020160009150905080600001805461033f906109ad565b80601f016020809104026020016040519081016040528092919081815260200182805461036b906109ad565b80156103b85780601f1061038d576101008083540402835291602001916103b8565b820191906000526020600020905b81548152906001019060200180831161039b57829003601f168201915b5050505050908060010180546103cd906109ad565b80601f01602080910402602001604051908101604052809291908181526020018280546103f9906109ad565b80156104465780601f1061041b57610100808354040283529160200191610446565b820191906000526020600020905b81548152906001019060200180831161042957829003601f168201915b50505050509080600201805461045b906109ad565b80601f0160208091040260200160405190810160405280929190818152602001828054610487906109ad565b80156104d45780601f106104a9576101008083540402835291602001916104d4565b820191906000526020600020905b8154815290600101906020018083116104b757829003601f168201915b5050505050908060030154905084565b6000604051806080016040528088888080601f016020809104026020016040519081016040528093929190818152602001838380828437600081840152601f19601f82011690508083019250505050505050815260200186868080601f016020809104026020016040519081016040528093929190818152602001838380828437600081840152601f19601f82011690508083019250505050505050815260200184848080601f016020809104026020016040519081016040528093929190818152602001838380828437600081840152601f19601f82011690508083019250505050505050815260200142815250908060018154018082558091505060019003906000526020600020906004020160009091909190915060008201518160000190816106119190610bb9565b5060208201518160010190816106279190610bb9565b50604082015181600201908161063d9190610bb9565b50606082015181600301555050858560405161065a929190610cca565b60405180910390207fad8e6036103a3923061984da6a0aa2c76a6687615b5db8cc7e10ae2de8a6aaec8585858542604051610699959493929190610d10565b60405180910390a2505050505050565b60008080549050905090565b600080fd5b600080fd5b6000819050919050565b6106d2816106bf565b81146106dd57600080fd5b50565b6000813590506106ef816106c9565b92915050565b60006020828403121561070b5761070a6106b5565b5b6000610719848285016106e0565b91505092915050565b600081519050919050565b600082825260208201905092915050565b60005b8381101561075c578082015181840152602081019050610741565b60008484015250505050565b6000601f19601f8301169050919050565b600061078482610722565b61078e818561072d565b935061079e81856020860161073e565b6107a781610768565b840191505092915050565b6107bb816106bf565b82525050565b600060808201905081810360008301526107db8187610779565b905081810360208301526107ef8186610779565b905081810360408301526108038185610779565b905061081260608301846107b2565b95945050505050565b600080fd5b600080fd5b600080fd5b60008083601f8401126108405761083f61081b565b5b8235905067ffffffffffffffff81111561085d5761085c610820565b5b60208301915083600182028301111561087957610878610825565b5b9250929050565b6000806000806000806060878903121561089d5761089c6106b5565b5b600087013567ffffffffffffffff8111156108bb576108ba6106ba565b5b6108c789828a0161082a565b9650965050602087013567ffffffffffffffff8111156108ea576108e96106ba565b5b6108f689828a0161082a565b9450945050604087013567ffffffffffffffff811115610919576109186106ba565b5b61092589828a0161082a565b92509250509295509295509295565b600060208201905061094960008301846107b2565b92915050565b7f4e487b7100000000000000000000000000000000000000000000000000000000600052603260045260246000fd5b7f4e487b7100000000000000000000000000000000000000000000000000000000600052602260045260246000fd5b600060028204905060018216806109c557607f821691505b6020821081036109d8576109d761097e565b5b50919050565b7f4e487b7100000000000000000000000000000000000000000000000000000000600052604160045260246000fd5b60008190508160005260206000209050919050565b60006020601f8301049050919050565b600082821b905092915050565b600060088302610a6f7fffffffffffffffffffffffffffffffffffffffffffffffffffffffffffffffff82610a32565b610a798683610a32565b95508019841693508086168417925050509392505050565b6000819050919050565b6000610ab6610ab1610aac846106bf565b610a91565b6106bf565b9050919050565b6000819050919050565b610ad083610a9b565b610ae4610adc82610abd565b848454610a3f565b825550505050565b600090565b610af9610aec565b610b04818484610ac7565b505050565b5b81811015610b2857610b1d600082610af1565b600181019050610b0a565b5050565b601f821115610b6d57610b3e81610a0d565b610b4784610a22565b81016020851015610b56578190505b610b6a610b6285610a22565b830182610b09565b50505b505050565b600082821c905092915050565b6000610b9060001984600802610b72565b1980831691505092915050565b6000610ba98383610b7f565b9150826002028217905092915050565b610bc282610722565b67ffffffffffffffff811115610bdb57610bda6109de565b5b610be582546109ad565b610bf0828285610b2c565b600060209050601f831160018114610c235760008415610c11578287015190505b610c1b8582610b9d565b865550610c83565b601f198416610c3186610a0d565b60005b82811015610c5957848901518255600182019150602085019450602081019050610c34565b86831015610c765784890151610c72601f891682610b7f565b8355505b6001600288020188555050505b505050505050565b600081905092915050565b82818337600083830152505050565b6000610cb18385610c8b565b9350610cbe838584610c96565b82840190509392505050565b6000610cd7828486610ca5565b91508190509392505050565b6000610cef838561072d565b9350610cfc838584610c96565b610d0583610768565b840190509392505050565b60006060820190508181036000830152610d2b818789610ce3565b90508181036020830152610d40818587610ce3565b9050610d4f60408301846107b2565b969550505050505056fea264697066735822122067959739734dfa9b911935c118fa1236b2e37fee69b7d9253b09706df928504064736f6c63430008140033",
  "linkReferences": {},
  "deployedLinkReferences": {}
}