{
  "_format": "hh-sol-artifact-1",
  "contractName": "SeasonManager",
  "sourceName": "src/SeasonManager.sol",
  "abi": [
    {
      "inputs": [
        {
          "internalType": "address",
          "name": "_paymentHub",
          "type": "address"
        },
        {
          "internalType": "uint256",
          "name": "_entryFee",
          "type": "uint256"
        }
      ],
      "stateMutability": "nonpayable",
      "type": "constructor"
    },
    {
      "anonymous": false,
      "inputs": [
        {
          "indexed": true,
          "internalType": "address",
          "name": "squad",
          "type": "address"
        }
      ],
      "name": "SquadClosed",
      "type": "event"
    },
    {
      "anonymous": false,
      "inputs": [
        {
          "indexed": true,
          "internalType": "address",
          "name": "squad",
          "type": "address"
        }
      ],
      "name": "SquadDeactivated",
      "type": "event"
    },
    {
      "anonymous": false,
      "inputs": [
        {
          "indexed": true,
          "internalType": "address",
          "name": "squad",
          "type": "address"
        },
        {
          "indexed": false,
          "internalType": "address",
          "name": "agentWallet",
          "type": "address"
        }
      ],
      "name": "SquadEnrolled",
      "type": "event"
    },
    {
      "anonymous": false,
      "inputs": [
        {
          "indexed": true,
          "internalType": "address",
          "name": "agent",
          "type": "address"
        },
        {
          "indexed": false,
          "internalType": "uint256",
          "name": "amount",
          "type": "uint256"
        },
        {
          "indexed": false,
          "internalType": "string",
          "name": "seasonId",
          "type": "string"
        }
      ],
      "name": "X402PaymentReceived",
      "type": "event"
    },
    {
      "inputs": [],
      "name": "closeSquad",
      "outputs": [],
      "stateMutability": "nonpayable",
      "type": "function"
    },
    {
      "inputs": [],
      "name": "deactivate",
      "outputs": [],
      "stateMutability": "nonpayable",
      "type": "function"
    },
    {
      "inputs": [
        {
          "internalType": "address",
          "name": "agentWallet",
          "type": "address"
        }
      ],
      "name": "enroll",
      "outputs": [],
      "stateMutability": "nonpayable",
      "type": "function"
    },
    {
      "inputs": [],
      "name": "entryFee",
      "outputs": [
        {
          "internalType": "uint256",
          "name": "",
          "type": "uint256"
        }
      ],
      "stateMutability": "view",
      "type": "function"
    },
    {
      "inputs": [
        {
          "internalType": "string",
          "name": "seasonId",
          "type": "string"
        }
      ],
      "name": "payEntryFee",
      "outputs": [],
      "stateMutability": "payable",
      "type": "function"
    },
    {
      "inputs": [],
      "name": "paymentHub",
      "outputs": [
        {
          "internalType": "contract IX402",
          "name": "",
          "type": "address"
        }
      ],
      "stateMutability": "view",
      "type": "function"
    },
    {
      "inputs": [
        {
          "internalType": "address",
          "name": "",
          "type": "address"
        }
      ],
      "name": "squads",
      "outputs": [
        {
          "internalType": "address",
          "name": "owner",
          "type": "address"
        },
        {
          "internalType": "address",
          "name": "agentWallet",
          "type": "address"
        },
        {
          "internalType": "bool",
          "name": "active",
          "type": "bool"
        }
      ],
      "stateMutability": "view",
      "type": "function"
    },
    {
      "inputs": [
        {
          "internalType": "uint256",
          "name": "newFee",
          "type": "uint256"
        }
      ],
      "name": "updateEntryFee",
      "outputs": [],
      "stateMutability": "nonpayable",
      "type": "function"
    }
  ],
  "bytecode": "0x60806040523480156200001157600080fd5b50604051620012b8380380620012b883398181016040528101906200003791906200012b565b816000806101000a81548173ffffffffffffffffffffffffffffffffffffffff021916908373ffffffffffffffffffffffffffffffffffffffff16021790555080600181905550505062000172565b600080fd5b600073ffffffffffffffffffffffffffffffffffffffff82169050919050565b6000620000b8826200008b565b9050919050565b620000ca81620000ab565b8114620000d657600080fd5b50565b600081519050620000ea81620000bf565b92915050565b6000819050919050565b6200010581620000f0565b81146200011157600080fd5b50565b6000815190506200012581620000fa565b92915050565b6000806040838503121562000145576200014462000086565b5b60006200015585828601620000d9565b9250506020620001688582860162000114565b9150509250929050565b61113680620001826000396000f3fe60806040526004361061007b5760003560e01c8063ba83d1a01161004e578063ba83d1a014610102578063c4e61be21461012b578063c81c7a5314610156578063e0cbc2eb146101725761007b565b8063072ea61c146100805780634e43bc57146100ab57806351b42b00146100c2578063aa182626146100d9575b600080fd5b34801561008c57600080fd5b506100956101b1565b6040516100a29190610a9e565b60405180910390f35b3480156100b757600080fd5b506100c06101b7565b005b3480156100ce57600080fd5b506100d7610376565b005b3480156100e557600080fd5b5061010060048036038101906100fb9190610aef565b6104ff565b005b34801561010e57600080fd5b5061012960048036038101906101249190610b7a565b610597565b005b34801561013757600080fd5b5061014061094f565b60405161014d9190610c06565b60405180910390f35b610170600480360381019061016b9190610c86565b610973565b005b34801561017e57600080fd5b5061019960048036038101906101949190610b7a565b610a0e565b6040516101a893929190610cfd565b60405180910390f35b60015481565b6000600260003373ffffffffffffffffffffffffffffffffffffffff1673ffffffffffffffffffffffffffffffffffffffff16815260200190815260200160002090503373ffffffffffffffffffffffffffffffffffffffff168160000160009054906101000a900473ffffffffffffffffffffffffffffffffffffffff1673ffffffffffffffffffffffffffffffffffffffff161461028c576040517f08c379a000000000000000000000000000000000000000000000000000000000815260040161028390610d91565b60405180910390fd5b600260003373ffffffffffffffffffffffffffffffffffffffff1673ffffffffffffffffffffffffffffffffffffffff168152602001908152602001600020600080820160006101000a81549073ffffffffffffffffffffffffffffffffffffffff02191690556001820160006101000a81549073ffffffffffffffffffffffffffffffffffffffff02191690556001820160146101000a81549060ff021916905550503373ffffffffffffffffffffffffffffffffffffffff167fefc05f2c0ed1361e29683502533056d8c6aa51210d0f82f60c3d2f8ac376126260405160405180910390a250565b6000600260003373ffffffffffffffffffffffffffffffffffffffff1673ffffffffffffffffffffffffffffffffffffffff16815260200190815260200160002090503373ffffffffffffffffffffffffffffffffffffffff168160000160009054906101000a900473ffffffffffffffffffffffffffffffffffffffff1673ffffffffffffffffffffffffffffffffffffffff161461044b576040517f08c379a000000000000000000000000000000000000000000000000000000000815260040161044290610d91565b60405180910390fd5b8060010160149054906101000a900460ff1661049c576040517f08c379a000000000000000000000000000000000000000000000000000000000815260040161049390610dfd565b60405180910390fd5b60008160010160146101000a81548160ff0219169083151502179055503373ffffffffffffffffffffffffffffffffffffffff167f2bbf1cdf4e6f807b32e0a71df9d9e6dd243a373cd1a218d443469dcbc4322b1960405160405180910390a250565b60008054906101000a900473ffffffffffffffffffffffffffffffffffffffff1673ffffffffffffffffffffffffffffffffffffffff163373ffffffffffffffffffffffffffffffffffffffff161461058d576040517f08c379a000000000000000000000000000000000000000000000000000000000815260040161058490610e69565b60405180910390fd5b8060018190555050565b600073ffffffffffffffffffffffffffffffffffffffff168173ffffffffffffffffffffffffffffffffffffffff1603610606576040517f08c379a00000000000000000000000000000000000000000000000000000000081526004016105fd90610ed5565b60405180910390fd5b60001515600260003373ffffffffffffffffffffffffffffffffffffffff1673ffffffffffffffffffffffffffffffffffffffff16815260200190815260200160002060010160149054906101000a900460ff16151514806106f65750600073ffffffffffffffffffffffffffffffffffffffff16600260003373ffffffffffffffffffffffffffffffffffffffff1673ffffffffffffffffffffffffffffffffffffffff16815260200190815260200160002060000160009054906101000a900473ffffffffffffffffffffffffffffffffffffffff1673ffffffffffffffffffffffffffffffffffffffff16145b610735576040517f08c379a000000000000000000000000000000000000000000000000000000000815260040161072c90610f41565b60405180910390fd5b60008054906101000a900473ffffffffffffffffffffffffffffffffffffffff1673ffffffffffffffffffffffffffffffffffffffff1663911adc1a306001546040518363ffffffff1660e01b8152600401610792929190610fbe565b600060405180830381600087803b1580156107ac57600080fd5b505af11580156107c0573d6000803e3d6000fd5b5050505060405180606001604052803373ffffffffffffffffffffffffffffffffffffffff1681526020018273ffffffffffffffffffffffffffffffffffffffff16815260200160011515815250600260003373ffffffffffffffffffffffffffffffffffffffff1673ffffffffffffffffffffffffffffffffffffffff16815260200190815260200160002060008201518160000160006101000a81548173ffffffffffffffffffffffffffffffffffffffff021916908373ffffffffffffffffffffffffffffffffffffffff16021790555060208201518160010160006101000a81548173ffffffffffffffffffffffffffffffffffffffff021916908373ffffffffffffffffffffffffffffffffffffffff16021790555060408201518160010160146101000a81548160ff0219169083151502179055509050503373ffffffffffffffffffffffffffffffffffffffff167fad1eec92248850af26bc59e0094d8776ba2c86bbc2c48d176e3987e40dba0512826040516109449190610ffa565b60405180910390a250565b60008054906101000a900473ffffffffffffffffffffffffffffffffffffffff1681565b6001543410156109b8576040517f08c379a00000000000000000000000000000000000000000000000000000000081526004016109af90611061565b60405180910390fd5b3373ffffffffffffffffffffffffffffffffffffffff167fc82a16e554cda64ecc7fb005341679264953e2112452f6262ce831571750060a348484604051610a02939291906110ce565b60405180910390a25050565b60026020528060005260406000206000915090508060000160009054906101000a900473ffffffffffffffffffffffffffffffffffffffff16908060010160009054906101000a900473ffffffffffffffffffffffffffffffffffffffff16908060010160149054906101000a900460ff16905083565b6000819050919050565b610a9881610a85565b82525050565b6000602082019050610ab36000830184610a8f565b92915050565b600080fd5b600080fd5b610acc81610a85565b8114610ad757600080fd5b50565b600081359050610ae981610ac3565b92915050565b600060208284031215610b0557610b04610ab9565b5b6000610b1384828501610ada565b91505092915050565b600073ffffffffffffffffffffffffffffffffffffffff82169050919050565b6000610b4782610b1c565b9050919050565b610b5781610b3c565b8114610b6257600080fd5b50565b600081359050610b7481610b4e565b92915050565b600060208284031215610b9057610b8f610ab9565b5b6000610b9e84828501610b65565b91505092915050565b6000819050919050565b6000610bcc610bc7610bc284610b1c565b610ba7565b610b1c565b9050919050565b6000610bde82610bb1565b9050919050565b6000610bf082610bd3565b9050919050565b610c0081610be5565b82525050565b6000602082019050610c1b6000830184610bf7565b92915050565b600080fd5b600080fd5b600080fd5b60008083601f840112610c4657610c45610c21565b5b8235905067ffffffffffffffff811115610c6357610c62610c26565b5b602083019150836001820283011115610c7f57610c7e610c2b565b5b9250929050565b60008060208385031215610c9d57610c9c610ab9565b5b600083013567ffffffffffffffff811115610cbb57610cba610abe565b5b610cc785828601610c30565b92509250509250929050565b610cdc81610b3c565b82525050565b60008115159050919050565b610cf781610ce2565b82525050565b6000606082019050610d126000830186610cd3565b610d1f6020830185610cd3565b610d2c6040830184610cee565b949350505050565b600082825260208201905092915050565b7f6e6f742073717561640000000000000000000000000000000000000000000000600082015250565b6000610d7b600983610d34565b9150610d8682610d45565b602082019050919050565b60006020820190508181036000830152610daa81610d6e565b9050919050565b7f696e616374697665000000000000000000000000000000000000000000000000600082015250565b6000610de7600883610d34565b9150610df282610db1565b602082019050919050565b60006020820190508181036000830152610e1681610dda565b9050919050565b7f6e6f7420617574686f72697a6564000000000000000000000000000000000000600082015250565b6000610e53600e83610d34565b9150610e5e82610e1d565b602082019050919050565b60006020820190508181036000830152610e8281610e46565b9050919050565b7f696e76616c69642077616c6c6574000000000000000000000000000000000000600082015250565b6000610ebf600e83610d34565b9150610eca82610e89565b602082019050919050565b60006020820190508181036000830152610eee81610eb2565b9050919050565b7f616c726561647920656e726f6c6c656400000000000000000000000000000000600082015250565b6000610f2b601083610d34565b9150610f3682610ef5565b602082019050919050565b60006020820190508181036000830152610f5a81610f1e565b9050919050565b600082825260208201905092915050565b7f454e5452595f4645450000000000000000000000000000000000000000000000600082015250565b6000610fa8600983610f61565b9150610fb382610f72565b602082019050919050565b6000606082019050610fd36000830185610cd3565b610fe06020830184610a8f565b8181036040830152610ff181610f9b565b90509392505050565b600060208201905061100f6000830184610cd3565b92915050565b7f66656520746f6f206c6f77000000000000000000000000000000000000000000600082015250565b600061104b600b83610d34565b915061105682611015565b602082019050919050565b6000602082019050818103600083015261107a8161103e565b9050919050565b82818337600083830152505050565b6000601f19601f8301169050919050565b60006110ad8385610d34565b93506110ba838584611081565b6110c383611090565b840190509392505050565b60006040820190506110e36000830186610a8f565b81810360208301526110f68184866110a1565b905094935050505056fea26469706673582212205a35e8a75b60affe6f9db6ab40633dcdf9949aebe2319ed8f150f67a852d253d64736f6c63430008140033",
  "linkReferences": {},
  "deployedLinkReferences": {}
}