{
  "_format": "hh-sol-artifact-1",
  "contractName": "X402Mock",
  "sourceName": "src/mocks/X402Mock.sol",
  "abi": [
    {
      "anonymous": false,
      "inputs": [
        {
          "indexed": true,
          "internalType": "address",
          "name": "payer",
          "type": "address"
        },
        {
          "indexed": true,
          "internalType": "address",
          "name": "recipient",
          "type": "address"
        },
        {
          "indexed": false,
          "internalType": "uint256",
          "name": "amount",
          "type": "uint256"
        },
        {
          "indexed": false,
          "internalType": "bytes",
          "name": "memo",
          "type": "bytes"
        }
      ],
      "name": "Payment",
      "type": "event"
    },
    {
      "inputs": [
        {
          "internalType": "address",
          "name": "recipient",
          "type": "address"
        },
        {
          "internalType": "uint256",
          "name": "amount",
          "type": "uint256"
        },
        {
          "internalType": "bytes",
          "name": "memo",
          "type": "bytes"
        }
      ],
      "name": "pay",
      "outputs": [],
      "stateMutability": "nonpayable",
      "type": "function"
    }
  ],
  "bytecode": "0x608060405234801561001057600080fd5b50610307806100206000396000f3fe608060405234801561001057600080fd5b506004361061002b5760003560e01c8063911adc1a14610030575b600080fd5b61004a600480360381019061004591906101be565b61004c565b005b8373ffffffffffffffffffffffffffffffffffffffff163373ffffffffffffffffffffffffffffffffffffffff167fbf9aafaac96ea596142369b6f8d7b16e7dcc6d102f8015e91d1facd0a0b888f18585856040516100ad9392919061029f565b60405180910390a350505050565b600080fd5b600080fd5b600073ffffffffffffffffffffffffffffffffffffffff82169050919050565b60006100f0826100c5565b9050919050565b610100816100e5565b811461010b57600080fd5b50565b60008135905061011d816100f7565b92915050565b6000819050919050565b61013681610123565b811461014157600080fd5b50565b6000813590506101538161012d565b92915050565b600080fd5b600080fd5b600080fd5b60008083601f84011261017e5761017d610159565b5b8235905067ffffffffffffffff81111561019b5761019a61015e565b5b6020830191508360018202830111156101b7576101b6610163565b5b9250929050565b600080600080606085870312156101d8576101d76100bb565b5b60006101e68782880161010e565b94505060206101f787828801610144565b935050604085013567ffffffffffffffff811115610218576102176100c0565b5b61022487828801610168565b925092505092959194509250565b61023b81610123565b82525050565b600082825260208201905092915050565b82818337600083830152505050565b6000601f19601f8301169050919050565b600061027e8385610241565b935061028b838584610252565b61029483610261565b840190509392505050565b60006040820190506102b46000830186610232565b81810360208301526102c7818486610272565b905094935050505056fea264697066735822122086a1f0b80f812d8f5ef20a7f1c34b216e87406dd7d22a12e431f544dba855f3e64736f6c63430008140033",
  "linkReferences": {},
  "deployedLinkReferences": {}
}