{
  "_format": "hh-sol-artifact-1",
  "contractName": "StrategyRegistry",
  "sourceName": "src/StrategyRegistry.sol",
  "abi": [
    {
      "anonymous": false,
      "inputs": [
        {
          "indexed": true,
          "internalType": "bytes32",
          "name": "squadId",
          "type": "bytes32"
        },
        {
          "indexed": true,
          "internalType": "address",
          "name": "owner",
          "type": "address"
        },
        {
          "indexed": false,
          "internalType": "string",
          "name": "name",
          "type": "string"
        },
        {
          "indexed": false,
          "internalType": "bool",
          "name": "available",
          "type": "bool"
        }
      ],
      "name": "StrategyListed",
      "type": "event"
    },
    {
      "inputs": [],
      "name": "getAllListings",
      "outputs": [
        {
          "internalType": "bytes32[]",
          "name": "",
          "type": "bytes32[]"
        }
      ],
      "stateMutability": "view",
      "type": "function"
    },
    {
      "inputs": [
        {
          "internalType": "bytes32",
          "name": "squadId",
          "type": "bytes32"
        }
      ],
      "name": "getListing",
      "outputs": [
        {
          "components": [
            {
              "internalType": "bytes32",
              "name": "squadId",
              "type": "bytes32"
            },
            {
              "internalType": "address",
              "name": "owner",
              "type": "address"
            },
            {
              "internalType": "string",
              "name": "name",
              "type": "string"
            },
            {
              "internalType": "string",
              "name": "assetPair",
              "type": "string"
            },
            {
              "internalType": "string",
              "name": "mode",
              "type": "string"
            },
            {
              "internalType": "string",
              "name": "risk",
              "type": "string"
            },
            {
              "internalType": "bool",
              "name": "available",
              "type": "bool"
            },
            {
              "internalType": "uint256",
              "name": "updatedAt",
              "type": "uint256"
            }
          ],
          "internalType": "struct StrategyRegistry.Listing",
          "name": "",
          "type": "tuple"
        }
      ],
      "stateMutability": "view",
      "type": "function"
    },
    {
      "inputs": [
        {
          "internalType": "address",
          "name": "owner",
          "type": "address"
        }
      ],
      "name": "getOwnerListings",
      "outputs": [
        {
          "internalType": "bytes32[]",
          "name": "",
          "type": "bytes32[]"
        }
      ],
      "stateMutability": "view",
      "type": "function"
    },
    {
      "inputs": [
        {
          "internalType": "bytes32",
          "name": "squadId",
          "type": "bytes32"
        },
        {
          "internalType": "string",
          "name": "name",
          "type": "string"
        },
        {
          "internalType": "string",
          "name": "assetPair",
          "type": "string"
        },
        {
          "internalType": "string",
          "name": "mode",
          "type": "string"
        },
        {
          "internalType": "string",
          "name": "risk",
          "type": "string"
        },
        {
          "internalType": "bool",
          "name": "available",
          "type": "bool"
        }
      ],
      "name": "listStrategy",
      "outputs": [],
      "stateMutability": "nonpayable",
      "type": "function"
    }
  ],
  "bytecode": "0x608060405234801561001057600080fd5b50611439806100206000396000f3fe608060405234801561001057600080fd5b506004361061004c5760003560e01c80630df80d5114610051578063175c0d161461006d578063ae73ccec1461009d578063e2624d44146100bb575b600080fd5b61006b60048036038101906100669190610ace565b6100eb565b005b61008760048036038101906100829190610bde565b6105a8565b6040516100949190610dd8565b60405180910390f35b6100a56108a2565b6040516100b29190610ea9565b60405180910390f35b6100d560048036038101906100d09190610ef7565b6108fa565b6040516100e29190610ea9565b60405180910390f35b6000801b8a03610130576040517f08c379a000000000000000000000000000000000000000000000000000000000815260040161012790610f81565b60405180910390fd5b60008989905011610176576040517f08c379a000000000000000000000000000000000000000000000000000000000815260040161016d90610fed565b60405180910390fd5b600260008b815260200190815260200160002060009054906101000a900460ff1661025b576001600260008c815260200190815260200160002060006101000a81548160ff02191690831515021790555060038a9080600181540180825580915050600190039060005260206000200160009091909190915055600160003373ffffffffffffffffffffffffffffffffffffffff1673ffffffffffffffffffffffffffffffffffffffff1681526020019081526020016000208a90806001815401808255809150506001900390600052602060002001600090919091909150556102ff565b3373ffffffffffffffffffffffffffffffffffffffff166000808c815260200190815260200160002060010160009054906101000a900473ffffffffffffffffffffffffffffffffffffffff1673ffffffffffffffffffffffffffffffffffffffff16146102fe576040517f08c379a00000000000000000000000000000000000000000000000000000000081526004016102f590611059565b60405180910390fd5b5b6040518061010001604052808b81526020013373ffffffffffffffffffffffffffffffffffffffff1681526020018a8a8080601f016020809104026020016040519081016040528093929190818152602001838380828437600081840152601f19601f82011690508083019250505050505050815260200188888080601f016020809104026020016040519081016040528093929190818152602001838380828437600081840152601f19601f82011690508083019250505050505050815260200186868080601f016020809104026020016040519081016040528093929190818152602001838380828437600081840152601f19601f82011690508083019250505050505050815260200184848080601f016020809104026020016040519081016040528093929190818152602001838380828437600081840152601f19601f8201169050808301925050505050505081526020018215158152602001428152506000808c81526020019081526020016000206000820151816000015560208201518160010160006101000a81548173ffffffffffffffffffffffffffffffffffffffff021916908373ffffffffffffffffffffffffffffffffffffffff16021790555060408201518160020190816104d991906112b4565b5060608201518160030190816104ef91906112b4565b50608082015181600401908161050591906112b4565b5060a082015181600501908161051b91906112b4565b5060c08201518160060160006101000a81548160ff02191690831515021790555060e082015181600701559050503373ffffffffffffffffffffffffffffffffffffffff168a7f375d885c10bc61c5be00654b91f2094935187b816733eb1363eff753fc7f9c418b8b85604051610594939291906113d1565b60405180910390a350505050505050505050565b6105b0610991565b60008083815260200190815260200160002060405180610100016040529081600082015481526020016001820160009054906101000a900473ffffffffffffffffffffffffffffffffffffffff1673ffffffffffffffffffffffffffffffffffffffff1673ffffffffffffffffffffffffffffffffffffffff16815260200160028201805461063e906110d7565b80601f016020809104026020016040519081016040528092919081815260200182805461066a906110d7565b80156106b75780601f1061068c576101008083540402835291602001916106b7565b820191906000526020600020905b81548152906001019060200180831161069a57829003601f168201915b505050505081526020016003820180546106d0906110d7565b80601f01602080910402602001604051908101604052809291908181526020018280546106fc906110d7565b80156107495780601f1061071e57610100808354040283529160200191610749565b820191906000526020600020905b81548152906001019060200180831161072c57829003601f168201915b50505050508152602001600482018054610762906110d7565b80601f016020809104026020016040519081016040528092919081815260200182805461078e906110d7565b80156107db5780601f106107b0576101008083540402835291602001916107db565b820191906000526020600020905b8154815290600101906020018083116107be57829003601f168201915b505050505081526020016005820180546107f4906110d7565b80601f0160208091040260200160405190810160405280929190818152602001828054610820906110d7565b801561086d5780601f106108425761010080835404028352916020019161086d565b820191906000526020600020905b81548152906001019060200180831161085057829003601f168201915b505050505081526020016006820160009054906101000a900460ff161515151581526020016007820154815250509050919050565b606060038054806020026020016040519081016040528092919081815260200182805480156108f057602002820191906000526020600020905b8154815260200190600101908083116108dc575b5050505050905090565b6060600160008373ffffffffffffffffffffffffffffffffffffffff1673ffffffffffffffffffffffffffffffffffffffff16815260200190815260200160002080548060200260200160405190810160405280929190818152602001828054801561098557602002820191906000526020600020905b815481526020019060010190808311610971575b50505050509050919050565b60405180610100016040528060008019168152602001600073ffffffffffffffffffffffffffffffffffffffff16815260200160608152602001606081526020016060815260200160608152602001600015158152602001600081525090565b600080fd5b600080fd5b6000819050919050565b610a0e816109fb565b8114610a1957600080fd5b50565b600081359050610a2b81610a05565b92915050565b600080fd5b600080fd5b600080fd5b60008083601f840112610a5657610a55610a31565b5b8235905067ffffffffffffffff811115610a7357610a72610a36565b5b602083019150836001820283011115610a8f57610a8e610a3b565b5b9250929050565b60008115159050919050565b610aab81610a96565b8114610ab657600080fd5b50565b600081359050610ac881610aa2565b92915050565b60008060008060008060008060008060c08b8d031215610af157610af06109f1565b5b6000610aff8d828e01610a1c565b9a505060208b013567ffffffffffffffff811115610b2057610b1f6109f6565b5b610b2c8d828e01610a40565b995099505060408b013567ffffffffffffffff811115610b4f57610b4e6109f6565b5b610b5b8d828e01610a40565b975097505060608b013567ffffffffffffffff811115610b7e57610b7d6109f6565b5b610b8a8d828e01610a40565b955095505060808b013567ffffffffffffffff811115610bad57610bac6109f6565b5b610bb98d828e01610a40565b935093505060a0610bcc8d828e01610ab9565b9150509295989b9194979a5092959850565b600060208284031215610bf457610bf36109f1565b5b6000610c0284828501610a1c565b91505092915050565b610c14816109fb565b82525050565b600073ffffffffffffffffffffffffffffffffffffffff82169050919050565b6000610c4582610c1a565b9050919050565b610c5581610c3a565b82525050565b600081519050919050565b600082825260208201905092915050565b60005b83811015610c95578082015181840152602081019050610c7a565b60008484015250505050565b6000601f19601f8301169050919050565b6000610cbd82610c5b565b610cc78185610c66565b9350610cd7818560208601610c77565b610ce081610ca1565b840191505092915050565b610cf481610a96565b82525050565b6000819050919050565b610d0d81610cfa565b82525050565b600061010083016000830151610d2c6000860182610c0b565b506020830151610d3f6020860182610c4c565b5060408301518482036040860152610d578282610cb2565b91505060608301518482036060860152610d718282610cb2565b91505060808301518482036080860152610d8b8282610cb2565b91505060a083015184820360a0860152610da58282610cb2565b91505060c0830151610dba60c0860182610ceb565b5060e0830151610dcd60e0860182610d04565b508091505092915050565b60006020820190508181036000830152610df28184610d13565b905092915050565b600081519050919050565b600082825260208201905092915050565b6000819050602082019050919050565b6000610e328383610c0b565b60208301905092915050565b6000602082019050919050565b6000610e5682610dfa565b610e608185610e05565b9350610e6b83610e16565b8060005b83811015610e9c578151610e838882610e26565b9750610e8e83610e3e565b925050600181019050610e6f565b5085935050505092915050565b60006020820190508181036000830152610ec38184610e4b565b905092915050565b610ed481610c3a565b8114610edf57600080fd5b50565b600081359050610ef181610ecb565b92915050565b600060208284031215610f0d57610f0c6109f1565b5b6000610f1b84828501610ee2565b91505092915050565b600082825260208201905092915050565b7f696e76616c696420737175616400000000000000000000000000000000000000600082015250565b6000610f6b600d83610f24565b9150610f7682610f35565b602082019050919050565b60006020820190508181036000830152610f9a81610f5e565b9050919050565b7f696e76616c6964206e616d650000000000000000000000000000000000000000600082015250565b6000610fd7600c83610f24565b9150610fe282610fa1565b602082019050919050565b6000602082019050818103600083015261100681610fca565b9050919050565b7f6e6f74206f776e65720000000000000000000000000000000000000000000000600082015250565b6000611043600983610f24565b915061104e8261100d565b602082019050919050565b6000602082019050818103600083015261107281611036565b9050919050565b7f4e487b7100000000000000000000000000000000000000000000000000000000600052604160045260246000fd5b7f4e487b7100000000000000000000000000000000000000000000000000000000600052602260045260246000fd5b600060028204905060018216806110ef57607f821691505b602082108103611102576111016110a8565b5b50919050565b60008190508160005260206000209050919050565b60006020601f8301049050919050565b600082821b905092915050565b60006008830261116a7fffffffffffffffffffffffffffffffffffffffffffffffffffffffffffffffff8261112d565b611174868361112d565b95508019841693508086168417925050509392505050565b6000819050919050565b60006111b16111ac6111a784610cfa565b61118c565b610cfa565b9050919050565b6000819050919050565b6111cb83611196565b6111df6111d7826111b8565b84845461113a565b825550505050565b600090565b6111f46111e7565b6111ff8184846111c2565b505050565b5b81811015611223576112186000826111ec565b600181019050611205565b5050565b601f8211156112685761123981611108565b6112428461111d565b81016020851015611251578190505b61126561125d8561111d565b830182611204565b50505b505050565b600082821c905092915050565b600061128b6000198460080261126d565b1980831691505092915050565b60006112a4838361127a565b9150826002028217905092915050565b6112bd82610c5b565b67ffffffffffffffff8111156112d6576112d5611079565b5b6112e082546110d7565b6112eb828285611227565b600060209050601f83116001811461131e576000841561130c578287015190505b6113168582611298565b86555061137e565b601f19841661132c86611108565b60005b828110156113545784890151825560018201915060208501945060208101905061132f565b86831015611371578489015161136d601f89168261127a565b8355505b6001600288020188555050505b505050505050565b82818337600083830152505050565b60006113a18385610f24565b93506113ae838584611386565b6113b783610ca1565b840190509392505050565b6113cb81610a96565b82525050565b600060408201905081810360008301526113ec818587611395565b90506113fb60208301846113c2565b94935050505056fea2646970667358221220105551b80e0f7b9664b8b39563c3a534d605885b226872f6bbcae8d718e3cb9864736f6c63430008140033",
  "linkReferences": {},
  "deployedLinkReferences": {}
}